{
  "_format": "hh-sol-artifact-1",
  "contractName": "NFT_Ais",
  "sourceName": "contracts/NFT_Ais.sol",
  "abi": [
    {
      "inputs": [],
      "stateMutability": "nonpayable",
      "type": "constructor"
    },
    {
      "anonymous": false,
      "inputs": [
        {
          "indexed": true,
          "internalType": "address",
          "name": "owner",
          "type": "address"
        },
        {
          "indexed": true,
          "internalType": "address",
          "name": "approved",
          "type": "address"
        },
        {
          "indexed": true,
          "internalType": "uint256",
          "name": "tokenId",
          "type": "uint256"
        }
      ],
      "name": "Approval",
      "type": "event"
    },
    {
      "anonymous": false,
      "inputs": [
        {
          "indexed": true,
          "internalType": "address",
          "name": "owner",
          "type": "address"
        },
        {
          "indexed": true,
          "internalType": "address",
          "name": "operator",
          "type": "address"
        },
        {
          "indexed": false,
          "internalType": "bool",
          "name": "approved",
          "type": "bool"
        }
      ],
      "name": "ApprovalForAll",
      "type": "event"
    },
    {
      "anonymous": false,
      "inputs": [
        {
          "indexed": true,
          "internalType": "address",
          "name": "previousOwner",
          "type": "address"
        },
        {
          "indexed": true,
          "internalType": "address",
          "name": "newOwner",
          "type": "address"
        }
      ],
      "name": "OwnershipTransferred",
      "type": "event"
    },
    {
      "anonymous": false,
      "inputs": [
        {
          "indexed": true,
          "internalType": "address",
          "name": "from",
          "type": "address"
        },
        {
          "indexed": true,
          "internalType": "address",
          "name": "to",
          "type": "address"
        },
        {
          "indexed": true,
          "internalType": "uint256",
          "name": "tokenId",
          "type": "uint256"
        }
      ],
      "name": "Transfer",
      "type": "event"
    },
    {
      "inputs": [
        {
          "internalType": "address",
          "name": "to",
          "type": "address"
        },
        {
          "internalType": "uint256",
          "name": "tokenId",
          "type": "uint256"
        }
      ],
      "name": "approve",
      "outputs": [],
      "stateMutability": "nonpayable",
      "type": "function"
    },
    {
      "inputs": [
        {
          "internalType": "address",
          "name": "owner",
          "type": "address"
        }
      ],
      "name": "balanceOf",
      "outputs": [
        {
          "internalType": "uint256",
          "name": "",
          "type": "uint256"
        }
      ],
      "stateMutability": "view",
      "type": "function"
    },
    {
      "inputs": [
        {
          "internalType": "string",
          "name": "_newBaseURIMetadata",
          "type": "string"
        }
      ],
      "name": "changeBaseURI",
      "outputs": [],
      "stateMutability": "nonpayable",
      "type": "function"
    },
    {
      "inputs": [
        {
          "internalType": "uint256",
          "name": "tokenId",
          "type": "uint256"
        }
      ],
      "name": "getApproved",
      "outputs": [
        {
          "internalType": "address",
          "name": "",
          "type": "address"
        }
      ],
      "stateMutability": "view",
      "type": "function"
    },
    {
      "inputs": [
        {
          "internalType": "address",
          "name": "_user",
          "type": "address"
        }
      ],
      "name": "getListNFT",
      "outputs": [
        {
          "internalType": "uint256[]",
          "name": "",
          "type": "uint256[]"
        }
      ],
      "stateMutability": "view",
      "type": "function"
    },
    {
      "inputs": [],
      "name": "getMaxLimit",
      "outputs": [
        {
          "internalType": "uint256",
          "name": "",
          "type": "uint256"
        }
      ],
      "stateMutability": "view",
      "type": "function"
    },
    {
      "inputs": [],
      "name": "getPrice",
      "outputs": [
        {
          "internalType": "uint256",
          "name": "",
          "type": "uint256"
        }
      ],
      "stateMutability": "view",
      "type": "function"
    },
    {
      "inputs": [
        {
          "internalType": "address",
          "name": "owner",
          "type": "address"
        },
        {
          "internalType": "address",
          "name": "operator",
          "type": "address"
        }
      ],
      "name": "isApprovedForAll",
      "outputs": [
        {
          "internalType": "bool",
          "name": "",
          "type": "bool"
        }
      ],
      "stateMutability": "view",
      "type": "function"
    },
    {
      "inputs": [],
      "name": "name",
      "outputs": [
        {
          "internalType": "string",
          "name": "",
          "type": "string"
        }
      ],
      "stateMutability": "view",
      "type": "function"
    },
    {
      "inputs": [],
      "name": "owner",
      "outputs": [
        {
          "internalType": "address",
          "name": "",
          "type": "address"
        }
      ],
      "stateMutability": "view",
      "type": "function"
    },
    {
      "inputs": [
        {
          "internalType": "uint256",
          "name": "tokenId",
          "type": "uint256"
        }
      ],
      "name": "ownerOf",
      "outputs": [
        {
          "internalType": "address",
          "name": "",
          "type": "address"
        }
      ],
      "stateMutability": "view",
      "type": "function"
    },
    {
      "inputs": [],
      "name": "renounceOwnership",
      "outputs": [],
      "stateMutability": "nonpayable",
      "type": "function"
    },
    {
      "inputs": [
        {
          "internalType": "address",
          "name": "_to",
          "type": "address"
        }
      ],
      "name": "safeMint",
      "outputs": [],
      "stateMutability": "payable",
      "type": "function"
    },
    {
      "inputs": [
        {
          "internalType": "address",
          "name": "from",
          "type": "address"
        },
        {
          "internalType": "address",
          "name": "to",
          "type": "address"
        },
        {
          "internalType": "uint256",
          "name": "tokenId",
          "type": "uint256"
        }
      ],
      "name": "safeTransferFrom",
      "outputs": [],
      "stateMutability": "nonpayable",
      "type": "function"
    },
    {
      "inputs": [
        {
          "internalType": "address",
          "name": "from",
          "type": "address"
        },
        {
          "internalType": "address",
          "name": "to",
          "type": "address"
        },
        {
          "internalType": "uint256",
          "name": "tokenId",
          "type": "uint256"
        },
        {
          "internalType": "bytes",
          "name": "data",
          "type": "bytes"
        }
      ],
      "name": "safeTransferFrom",
      "outputs": [],
      "stateMutability": "nonpayable",
      "type": "function"
    },
    {
      "inputs": [
        {
          "internalType": "address",
          "name": "operator",
          "type": "address"
        },
        {
          "internalType": "bool",
          "name": "approved",
          "type": "bool"
        }
      ],
      "name": "setApprovalForAll",
      "outputs": [],
      "stateMutability": "nonpayable",
      "type": "function"
    },
    {
      "inputs": [
        {
          "internalType": "bytes4",
          "name": "interfaceId",
          "type": "bytes4"
        }
      ],
      "name": "supportsInterface",
      "outputs": [
        {
          "internalType": "bool",
          "name": "",
          "type": "bool"
        }
      ],
      "stateMutability": "view",
      "type": "function"
    },
    {
      "inputs": [],
      "name": "symbol",
      "outputs": [
        {
          "internalType": "string",
          "name": "",
          "type": "string"
        }
      ],
      "stateMutability": "view",
      "type": "function"
    },
    {
      "inputs": [
        {
          "internalType": "uint256",
          "name": "index",
          "type": "uint256"
        }
      ],
      "name": "tokenByIndex",
      "outputs": [
        {
          "internalType": "uint256",
          "name": "",
          "type": "uint256"
        }
      ],
      "stateMutability": "view",
      "type": "function"
    },
    {
      "inputs": [
        {
          "internalType": "address",
          "name": "owner",
          "type": "address"
        },
        {
          "internalType": "uint256",
          "name": "index",
          "type": "uint256"
        }
      ],
      "name": "tokenOfOwnerByIndex",
      "outputs": [
        {
          "internalType": "uint256",
          "name": "",
          "type": "uint256"
        }
      ],
      "stateMutability": "view",
      "type": "function"
    },
    {
      "inputs": [
        {
          "internalType": "uint256",
          "name": "tokenId",
          "type": "uint256"
        }
      ],
      "name": "tokenURI",
      "outputs": [
        {
          "internalType": "string",
          "name": "",
          "type": "string"
        }
      ],
      "stateMutability": "view",
      "type": "function"
    },
    {
      "inputs": [],
      "name": "totalSupply",
      "outputs": [
        {
          "internalType": "uint256",
          "name": "",
          "type": "uint256"
        }
      ],
      "stateMutability": "view",
      "type": "function"
    },
    {
      "inputs": [
        {
          "internalType": "address",
          "name": "from",
          "type": "address"
        },
        {
          "internalType": "address",
          "name": "to",
          "type": "address"
        },
        {
          "internalType": "uint256",
          "name": "tokenId",
          "type": "uint256"
        }
      ],
      "name": "transferFrom",
      "outputs": [],
      "stateMutability": "nonpayable",
      "type": "function"
    },
    {
      "inputs": [
        {
          "internalType": "address",
          "name": "newOwner",
          "type": "address"
        }
      ],
      "name": "transferOwnership",
      "outputs": [],
      "stateMutability": "nonpayable",
      "type": "function"
    },
    {
      "inputs": [],
      "name": "withDraw",
      "outputs": [],
      "stateMutability": "nonpayable",
      "type": "function"
    }
  ],
  "bytecode": "0x60806040526050600b556509184e72a000600c55604051806060016040528060368152602001620041c860369139600e90816200003d91906200044c565b503480156200004b57600080fd5b506040518060400160405280600981526020017f41657374686574696300000000000000000000000000000000000000000000008152506040518060400160405280600381526020017f41697300000000000000000000000000000000000000000000000000000000008152508160009081620000c991906200044c565b508060019081620000db91906200044c565b505050620000fe620000f26200010460201b60201c565b6200010c60201b60201c565b62000533565b600033905090565b6000600a60009054906101000a900473ffffffffffffffffffffffffffffffffffffffff16905081600a60006101000a81548173ffffffffffffffffffffffffffffffffffffffff021916908373ffffffffffffffffffffffffffffffffffffffff1602179055508173ffffffffffffffffffffffffffffffffffffffff168173ffffffffffffffffffffffffffffffffffffffff167f8be0079c531659141344cd1fd0a4f28419497f9722a3daafe3b4186f6b6457e060405160405180910390a35050565b600081519050919050565b7f4e487b7100000000000000000000000000000000000000000000000000000000600052604160045260246000fd5b7f4e487b7100000000000000000000000000000000000000000000000000000000600052602260045260246000fd5b600060028204905060018216806200025457607f821691505b6020821081036200026a57620002696200020c565b5b50919050565b60008190508160005260206000209050919050565b60006020601f8301049050919050565b600082821b905092915050565b600060088302620002d47fffffffffffffffffffffffffffffffffffffffffffffffffffffffffffffffff8262000295565b620002e0868362000295565b95508019841693508086168417925050509392505050565b6000819050919050565b6000819050919050565b60006200032d620003276200032184620002f8565b62000302565b620002f8565b9050919050565b6000819050919050565b62000349836200030c565b62000361620003588262000334565b848454620002a2565b825550505050565b600090565b6200037862000369565b620003858184846200033e565b505050565b5b81811015620003ad57620003a16000826200036e565b6001810190506200038b565b5050565b601f821115620003fc57620003c68162000270565b620003d18462000285565b81016020851015620003e1578190505b620003f9620003f08562000285565b8301826200038a565b50505b505050565b600082821c905092915050565b6000620004216000198460080262000401565b1980831691505092915050565b60006200043c83836200040e565b9150826002028217905092915050565b6200045782620001d2565b67ffffffffffffffff811115620004735762000472620001dd565b5b6200047f82546200023b565b6200048c828285620003b1565b600060209050601f831160018114620004c45760008415620004af578287015190505b620004bb85826200042e565b8655506200052b565b601f198416620004d48662000270565b60005b82811015620004fe57848901518255600182019150602085019450602081019050620004d7565b868310156200051e57848901516200051a601f8916826200040e565b8355505b6001600288020188555050505b505050505050565b613c8580620005436000396000f3fe6080604052600436106101665760003560e01c80636352211e116100d1578063a22cb4651161008a578063c87b56dd11610064578063c87b56dd1461052d578063df6d48431461056a578063e985e9c514610595578063f2fde38b146105d257610166565b8063a22cb4651461049e578063b88d4fde146104c7578063c013ec21146104f057610166565b80636352211e1461038c57806370a08231146103c9578063715018a6146104065780638da5cb5b1461041d57806395d89b411461044857806398d5fdca1461047357610166565b806323b872dd1161012357806323b872dd1461027b5780632f745c59146102a457806339a0c6f9146102e157806340d097c31461030a57806342842e0e146103265780634f6ccce71461034f57610166565b806301ffc9a71461016b57806306fdde03146101a8578063081812fc146101d3578063095ea7b3146102105780630fdb1c101461023957806318160ddd14610250575b600080fd5b34801561017757600080fd5b50610192600480360381019061018d91906125cc565b6105fb565b60405161019f9190612614565b60405180910390f35b3480156101b457600080fd5b506101bd610675565b6040516101ca91906126bf565b60405180910390f35b3480156101df57600080fd5b506101fa60048036038101906101f59190612717565b610707565b6040516102079190612785565b60405180910390f35b34801561021c57600080fd5b50610237600480360381019061023291906127cc565b61074d565b005b34801561024557600080fd5b5061024e610864565b005b34801561025c57600080fd5b506102656108e5565b604051610272919061281b565b60405180910390f35b34801561028757600080fd5b506102a2600480360381019061029d9190612836565b6108f2565b005b3480156102b057600080fd5b506102cb60048036038101906102c691906127cc565b610952565b6040516102d8919061281b565b60405180910390f35b3480156102ed57600080fd5b50610308600480360381019061030391906129be565b6109f7565b005b610324600480360381019061031f9190612a07565b610a12565b005b34801561033257600080fd5b5061034d60048036038101906103489190612836565b610b6f565b005b34801561035b57600080fd5b5061037660048036038101906103719190612717565b610b8f565b604051610383919061281b565b60405180910390f35b34801561039857600080fd5b506103b360048036038101906103ae9190612717565b610c00565b6040516103c09190612785565b60405180910390f35b3480156103d557600080fd5b506103f060048036038101906103eb9190612a07565b610c86565b6040516103fd919061281b565b60405180910390f35b34801561041257600080fd5b5061041b610d3d565b005b34801561042957600080fd5b50610432610d51565b60405161043f9190612785565b60405180910390f35b34801561045457600080fd5b5061045d610d7b565b60405161046a91906126bf565b60405180910390f35b34801561047f57600080fd5b50610488610e0d565b604051610495919061281b565b60405180910390f35b3480156104aa57600080fd5b506104c560048036038101906104c09190612a60565b610e17565b005b3480156104d357600080fd5b506104ee60048036038101906104e99190612b41565b610e2d565b005b3480156104fc57600080fd5b5061051760048036038101906105129190612a07565b610e8f565b6040516105249190612c82565b60405180910390f35b34801561053957600080fd5b50610554600480360381019061054f9190612717565b610f26565b60405161056191906126bf565b60405180910390f35b34801561057657600080fd5b5061057f610f8f565b60405161058c919061281b565b60405180910390f35b3480156105a157600080fd5b506105bc60048036038101906105b79190612ca4565b610f99565b6040516105c99190612614565b60405180910390f35b3480156105de57600080fd5b506105f960048036038101906105f49190612a07565b61102d565b005b60007f780e9d63000000000000000000000000000000000000000000000000000000007bffffffffffffffffffffffffffffffffffffffffffffffffffffffff1916827bffffffffffffffffffffffffffffffffffffffffffffffffffffffff1916148061066e575061066d826110b0565b5b9050919050565b60606000805461068490612d13565b80601f01602080910402602001604051908101604052809291908181526020018280546106b090612d13565b80156106fd5780601f106106d2576101008083540402835291602001916106fd565b820191906000526020600020905b8154815290600101906020018083116106e057829003601f168201915b5050505050905090565b600061071282611192565b6004600083815260200190815260200160002060009054906101000a900473ffffffffffffffffffffffffffffffffffffffff169050919050565b600061075882610c00565b90508073ffffffffffffffffffffffffffffffffffffffff168373ffffffffffffffffffffffffffffffffffffffff16036107c8576040517f08c379a00000000000000000000000000000000000000000000000000000000081526004016107bf90612db6565b60405180910390fd5b8073ffffffffffffffffffffffffffffffffffffffff166107e76111dd565b73ffffffffffffffffffffffffffffffffffffffff1614806108165750610815816108106111dd565b610f99565b5b610855576040517f08c379a000000000000000000000000000000000000000000000000000000000815260040161084c90612e48565b60405180910390fd5b61085f83836111e5565b505050565b61086c61129e565b60003373ffffffffffffffffffffffffffffffffffffffff164760405161089290612e99565b60006040518083038185875af1925050503d80600081146108cf576040519150601f19603f3d011682016040523d82523d6000602084013e6108d4565b606091505b50509050806108e257600080fd5b50565b6000600880549050905090565b6109036108fd6111dd565b8261131c565b610942576040517f08c379a000000000000000000000000000000000000000000000000000000000815260040161093990612f20565b60405180910390fd5b61094d8383836113b1565b505050565b600061095d83610c86565b821061099e576040517f08c379a000000000000000000000000000000000000000000000000000000000815260040161099590612fb2565b60405180910390fd5b600660008473ffffffffffffffffffffffffffffffffffffffff1673ffffffffffffffffffffffffffffffffffffffff168152602001908152602001600020600083815260200190815260200160002054905092915050565b6109ff61129e565b80600e9081610a0e919061317e565b5050565b6000600d60008373ffffffffffffffffffffffffffffffffffffffff1673ffffffffffffffffffffffffffffffffffffffff16815260200190815260200160002090506000610a5f6108e5565b9050600b548110610aa5576040517f08c379a0000000000000000000000000000000000000000000000000000000008152600401610a9c9061329c565b60405180910390fd5b34600c5414610ae9576040517f08c379a0000000000000000000000000000000000000000000000000000000008152600401610ae090613308565b60405180910390fd5b610af383826116aa565b8181908060018154018082558091505060019003906000526020600020016000909190919091505581600d60008573ffffffffffffffffffffffffffffffffffffffff1673ffffffffffffffffffffffffffffffffffffffff168152602001908152602001600020908054610b699291906124f1565b50505050565b610b8a83838360405180602001604052806000815250610e2d565b505050565b6000610b996108e5565b8210610bda576040517f08c379a0000000000000000000000000000000000000000000000000000000008152600401610bd19061339a565b60405180910390fd5b60088281548110610bee57610bed6133ba565b5b90600052602060002001549050919050565b600080610c0c836116c8565b9050600073ffffffffffffffffffffffffffffffffffffffff168173ffffffffffffffffffffffffffffffffffffffff1603610c7d576040517f08c379a0000000000000000000000000000000000000000000000000000000008152600401610c7490613435565b60405180910390fd5b80915050919050565b60008073ffffffffffffffffffffffffffffffffffffffff168273ffffffffffffffffffffffffffffffffffffffff1603610cf6576040517f08c379a0000000000000000000000000000000000000000000000000000000008152600401610ced906134c7565b60405180910390fd5b600360008373ffffffffffffffffffffffffffffffffffffffff1673ffffffffffffffffffffffffffffffffffffffff168152602001908152602001600020549050919050565b610d4561129e565b610d4f6000611705565b565b6000600a60009054906101000a900473ffffffffffffffffffffffffffffffffffffffff16905090565b606060018054610d8a90612d13565b80601f0160208091040260200160405190810160405280929190818152602001828054610db690612d13565b8015610e035780601f10610dd857610100808354040283529160200191610e03565b820191906000526020600020905b815481529060010190602001808311610de657829003601f168201915b5050505050905090565b6000600c54905090565b610e29610e226111dd565b83836117cb565b5050565b610e3e610e386111dd565b8361131c565b610e7d576040517f08c379a0000000000000000000000000000000000000000000000000000000008152600401610e7490612f20565b60405180910390fd5b610e8984848484611937565b50505050565b6060600d60008373ffffffffffffffffffffffffffffffffffffffff1673ffffffffffffffffffffffffffffffffffffffff168152602001908152602001600020805480602002602001604051908101604052809291908181526020018280548015610f1a57602002820191906000526020600020905b815481526020019060010190808311610f06575b50505050509050919050565b6060610f3182611192565b6000600e8054610f4090612d13565b905011610f5c5760405180602001604052806000815250610f88565b600e610f6783611993565b604051602001610f789291906135f2565b6040516020818303038152906040525b9050919050565b6000600b54905090565b6000600560008473ffffffffffffffffffffffffffffffffffffffff1673ffffffffffffffffffffffffffffffffffffffff16815260200190815260200160002060008373ffffffffffffffffffffffffffffffffffffffff1673ffffffffffffffffffffffffffffffffffffffff16815260200190815260200160002060009054906101000a900460ff16905092915050565b61103561129e565b600073ffffffffffffffffffffffffffffffffffffffff168173ffffffffffffffffffffffffffffffffffffffff16036110a4576040517f08c379a000000000000000000000000000000000000000000000000000000000815260040161109b90613693565b60405180910390fd5b6110ad81611705565b50565b60007f80ac58cd000000000000000000000000000000000000000000000000000000007bffffffffffffffffffffffffffffffffffffffffffffffffffffffff1916827bffffffffffffffffffffffffffffffffffffffffffffffffffffffff1916148061117b57507f5b5e139f000000000000000000000000000000000000000000000000000000007bffffffffffffffffffffffffffffffffffffffffffffffffffffffff1916827bffffffffffffffffffffffffffffffffffffffffffffffffffffffff1916145b8061118b575061118a82611a61565b5b9050919050565b61119b81611acb565b6111da576040517f08c379a00000000000000000000000000000000000000000000000000000000081526004016111d190613435565b60405180910390fd5b50565b600033905090565b816004600083815260200190815260200160002060006101000a81548173ffffffffffffffffffffffffffffffffffffffff021916908373ffffffffffffffffffffffffffffffffffffffff160217905550808273ffffffffffffffffffffffffffffffffffffffff1661125883610c00565b73ffffffffffffffffffffffffffffffffffffffff167f8c5be1e5ebec7d5bd14f71427d1e84f3dd0314c0f7b2291e5b200ac8c7c3b92560405160405180910390a45050565b6112a66111dd565b73ffffffffffffffffffffffffffffffffffffffff166112c4610d51565b73ffffffffffffffffffffffffffffffffffffffff161461131a576040517f08c379a0000000000000000000000000000000000000000000000000000000008152600401611311906136ff565b60405180910390fd5b565b60008061132883610c00565b90508073ffffffffffffffffffffffffffffffffffffffff168473ffffffffffffffffffffffffffffffffffffffff16148061136a57506113698185610f99565b5b806113a857508373ffffffffffffffffffffffffffffffffffffffff1661139084610707565b73ffffffffffffffffffffffffffffffffffffffff16145b91505092915050565b8273ffffffffffffffffffffffffffffffffffffffff166113d182610c00565b73ffffffffffffffffffffffffffffffffffffffff1614611427576040517f08c379a000000000000000000000000000000000000000000000000000000000815260040161141e90613791565b60405180910390fd5b600073ffffffffffffffffffffffffffffffffffffffff168273ffffffffffffffffffffffffffffffffffffffff1603611496576040517f08c379a000000000000000000000000000000000000000000000000000000000815260040161148d90613823565b60405180910390fd5b6114a38383836001611b0c565b8273ffffffffffffffffffffffffffffffffffffffff166114c382610c00565b73ffffffffffffffffffffffffffffffffffffffff1614611519576040517f08c379a000000000000000000000000000000000000000000000000000000000815260040161151090613791565b60405180910390fd5b6004600082815260200190815260200160002060006101000a81549073ffffffffffffffffffffffffffffffffffffffff02191690556001600360008573ffffffffffffffffffffffffffffffffffffffff1673ffffffffffffffffffffffffffffffffffffffff168152602001908152602001600020600082825403925050819055506001600360008473ffffffffffffffffffffffffffffffffffffffff1673ffffffffffffffffffffffffffffffffffffffff16815260200190815260200160002060008282540192505081905550816002600083815260200190815260200160002060006101000a81548173ffffffffffffffffffffffffffffffffffffffff021916908373ffffffffffffffffffffffffffffffffffffffff160217905550808273ffffffffffffffffffffffffffffffffffffffff168473ffffffffffffffffffffffffffffffffffffffff167fddf252ad1be2c89b69c2b068fc378daa952ba7f163c4a11628f55a4df523b3ef60405160405180910390a46116a58383836001611c6a565b505050565b6116c4828260405180602001604052806000815250611c70565b5050565b60006002600083815260200190815260200160002060009054906101000a900473ffffffffffffffffffffffffffffffffffffffff169050919050565b6000600a60009054906101000a900473ffffffffffffffffffffffffffffffffffffffff16905081600a60006101000a81548173ffffffffffffffffffffffffffffffffffffffff021916908373ffffffffffffffffffffffffffffffffffffffff1602179055508173ffffffffffffffffffffffffffffffffffffffff168173ffffffffffffffffffffffffffffffffffffffff167f8be0079c531659141344cd1fd0a4f28419497f9722a3daafe3b4186f6b6457e060405160405180910390a35050565b8173ffffffffffffffffffffffffffffffffffffffff168373ffffffffffffffffffffffffffffffffffffffff1603611839576040517f08c379a00000000000000000000000000000000000000000000000000000000081526004016118309061388f565b60405180910390fd5b80600560008573ffffffffffffffffffffffffffffffffffffffff1673ffffffffffffffffffffffffffffffffffffffff16815260200190815260200160002060008473ffffffffffffffffffffffffffffffffffffffff1673ffffffffffffffffffffffffffffffffffffffff16815260200190815260200160002060006101000a81548160ff0219169083151502179055508173ffffffffffffffffffffffffffffffffffffffff168373ffffffffffffffffffffffffffffffffffffffff167f17307eab39ab6107e8899845ad3d59bd9653f200f220920489ca2b5937696c318360405161192a9190612614565b60405180910390a3505050565b6119428484846113b1565b61194e84848484611ccb565b61198d576040517f08c379a000000000000000000000000000000000000000000000000000000000815260040161198490613921565b60405180910390fd5b50505050565b6060600060016119a284611e52565b01905060008167ffffffffffffffff8111156119c1576119c0612893565b5b6040519080825280601f01601f1916602001820160405280156119f35781602001600182028036833780820191505090505b509050600082602001820190505b600115611a56578080600190039150507f3031323334353637383961626364656600000000000000000000000000000000600a86061a8153600a8581611a4a57611a49613941565b5b04945060008503611a01575b819350505050919050565b60007f01ffc9a7000000000000000000000000000000000000000000000000000000007bffffffffffffffffffffffffffffffffffffffffffffffffffffffff1916827bffffffffffffffffffffffffffffffffffffffffffffffffffffffff1916149050919050565b60008073ffffffffffffffffffffffffffffffffffffffff16611aed836116c8565b73ffffffffffffffffffffffffffffffffffffffff1614159050919050565b611b1884848484611fa5565b6001811115611b5c576040517f08c379a0000000000000000000000000000000000000000000000000000000008152600401611b53906139e2565b60405180910390fd5b6000829050600073ffffffffffffffffffffffffffffffffffffffff168573ffffffffffffffffffffffffffffffffffffffff1603611ba357611b9e81611fab565b611be2565b8373ffffffffffffffffffffffffffffffffffffffff168573ffffffffffffffffffffffffffffffffffffffff1614611be157611be08582611ff4565b5b5b600073ffffffffffffffffffffffffffffffffffffffff168473ffffffffffffffffffffffffffffffffffffffff1603611c2457611c1f81612161565b611c63565b8473ffffffffffffffffffffffffffffffffffffffff168473ffffffffffffffffffffffffffffffffffffffff1614611c6257611c618482612232565b5b5b5050505050565b50505050565b611c7a83836122b1565b611c876000848484611ccb565b611cc6576040517f08c379a0000000000000000000000000000000000000000000000000000000008152600401611cbd90613921565b60405180910390fd5b505050565b6000611cec8473ffffffffffffffffffffffffffffffffffffffff166124ce565b15611e45578373ffffffffffffffffffffffffffffffffffffffff1663150b7a02611d156111dd565b8786866040518563ffffffff1660e01b8152600401611d379493929190613a57565b6020604051808303816000875af1925050508015611d7357506040513d601f19601f82011682018060405250810190611d709190613ab8565b60015b611df5573d8060008114611da3576040519150601f19603f3d011682016040523d82523d6000602084013e611da8565b606091505b506000815103611ded576040517f08c379a0000000000000000000000000000000000000000000000000000000008152600401611de490613921565b60405180910390fd5b805181602001fd5b63150b7a0260e01b7bffffffffffffffffffffffffffffffffffffffffffffffffffffffff1916817bffffffffffffffffffffffffffffffffffffffffffffffffffffffff191614915050611e4a565b600190505b949350505050565b600080600090507a184f03e93ff9f4daa797ed6e38ed64bf6a1f0100000000000000008310611eb0577a184f03e93ff9f4daa797ed6e38ed64bf6a1f0100000000000000008381611ea657611ea5613941565b5b0492506040810190505b6d04ee2d6d415b85acef81000000008310611eed576d04ee2d6d415b85acef81000000008381611ee357611ee2613941565b5b0492506020810190505b662386f26fc100008310611f1c57662386f26fc100008381611f1257611f11613941565b5b0492506010810190505b6305f5e1008310611f45576305f5e1008381611f3b57611f3a613941565b5b0492506008810190505b6127108310611f6a576127108381611f6057611f5f613941565b5b0492506004810190505b60648310611f8d5760648381611f8357611f82613941565b5b0492506002810190505b600a8310611f9c576001810190505b80915050919050565b50505050565b6008805490506009600083815260200190815260200160002081905550600881908060018154018082558091505060019003906000526020600020016000909190919091505550565b6000600161200184610c86565b61200b9190613b14565b90506000600760008481526020019081526020016000205490508181146120f0576000600660008673ffffffffffffffffffffffffffffffffffffffff1673ffffffffffffffffffffffffffffffffffffffff168152602001908152602001600020600084815260200190815260200160002054905080600660008773ffffffffffffffffffffffffffffffffffffffff1673ffffffffffffffffffffffffffffffffffffffff168152602001908152602001600020600084815260200190815260200160002081905550816007600083815260200190815260200160002081905550505b6007600084815260200190815260200160002060009055600660008573ffffffffffffffffffffffffffffffffffffffff1673ffffffffffffffffffffffffffffffffffffffff16815260200190815260200160002060008381526020019081526020016000206000905550505050565b600060016008805490506121759190613b14565b90506000600960008481526020019081526020016000205490506000600883815481106121a5576121a46133ba565b5b9060005260206000200154905080600883815481106121c7576121c66133ba565b5b90600052602060002001819055508160096000838152602001908152602001600020819055506009600085815260200190815260200160002060009055600880548061221657612215613b48565b5b6001900381819060005260206000200160009055905550505050565b600061223d83610c86565b905081600660008573ffffffffffffffffffffffffffffffffffffffff1673ffffffffffffffffffffffffffffffffffffffff168152602001908152602001600020600083815260200190815260200160002081905550806007600084815260200190815260200160002081905550505050565b600073ffffffffffffffffffffffffffffffffffffffff168273ffffffffffffffffffffffffffffffffffffffff1603612320576040517f08c379a000000000000000000000000000000000000000000000000000000000815260040161231790613bc3565b60405180910390fd5b61232981611acb565b15612369576040517f08c379a000000000000000000000000000000000000000000000000000000000815260040161236090613c2f565b60405180910390fd5b612377600083836001611b0c565b61238081611acb565b156123c0576040517f08c379a00000000000000000000000000000000000000000000000000000000081526004016123b790613c2f565b60405180910390fd5b6001600360008473ffffffffffffffffffffffffffffffffffffffff1673ffffffffffffffffffffffffffffffffffffffff16815260200190815260200160002060008282540192505081905550816002600083815260200190815260200160002060006101000a81548173ffffffffffffffffffffffffffffffffffffffff021916908373ffffffffffffffffffffffffffffffffffffffff160217905550808273ffffffffffffffffffffffffffffffffffffffff16600073ffffffffffffffffffffffffffffffffffffffff167fddf252ad1be2c89b69c2b068fc378daa952ba7f163c4a11628f55a4df523b3ef60405160405180910390a46124ca600083836001611c6a565b5050565b6000808273ffffffffffffffffffffffffffffffffffffffff163b119050919050565b8280548282559060005260206000209081019282156125325760005260206000209182015b82811115612531578254825591600101919060010190612516565b5b50905061253f9190612543565b5090565b5b8082111561255c576000816000905550600101612544565b5090565b6000604051905090565b600080fd5b600080fd5b60007fffffffff0000000000000000000000000000000000000000000000000000000082169050919050565b6125a981612574565b81146125b457600080fd5b50565b6000813590506125c6816125a0565b92915050565b6000602082840312156125e2576125e161256a565b5b60006125f0848285016125b7565b91505092915050565b60008115159050919050565b61260e816125f9565b82525050565b60006020820190506126296000830184612605565b92915050565b600081519050919050565b600082825260208201905092915050565b60005b8381101561266957808201518184015260208101905061264e565b60008484015250505050565b6000601f19601f8301169050919050565b60006126918261262f565b61269b818561263a565b93506126ab81856020860161264b565b6126b481612675565b840191505092915050565b600060208201905081810360008301526126d98184612686565b905092915050565b6000819050919050565b6126f4816126e1565b81146126ff57600080fd5b50565b600081359050612711816126eb565b92915050565b60006020828403121561272d5761272c61256a565b5b600061273b84828501612702565b91505092915050565b600073ffffffffffffffffffffffffffffffffffffffff82169050919050565b600061276f82612744565b9050919050565b61277f81612764565b82525050565b600060208201905061279a6000830184612776565b92915050565b6127a981612764565b81146127b457600080fd5b50565b6000813590506127c6816127a0565b92915050565b600080604083850312156127e3576127e261256a565b5b60006127f1858286016127b7565b925050602061280285828601612702565b9150509250929050565b612815816126e1565b82525050565b6000602082019050612830600083018461280c565b92915050565b60008060006060848603121561284f5761284e61256a565b5b600061285d868287016127b7565b935050602061286e868287016127b7565b925050604061287f86828701612702565b9150509250925092565b600080fd5b600080fd5b7f4e487b7100000000000000000000000000000000000000000000000000000000600052604160045260246000fd5b6128cb82612675565b810181811067ffffffffffffffff821117156128ea576128e9612893565b5b80604052505050565b60006128fd612560565b905061290982826128c2565b919050565b600067ffffffffffffffff82111561292957612928612893565b5b61293282612675565b9050602081019050919050565b82818337600083830152505050565b600061296161295c8461290e565b6128f3565b90508281526020810184848401111561297d5761297c61288e565b5b61298884828561293f565b509392505050565b600082601f8301126129a5576129a4612889565b5b81356129b584826020860161294e565b91505092915050565b6000602082840312156129d4576129d361256a565b5b600082013567ffffffffffffffff8111156129f2576129f161256f565b5b6129fe84828501612990565b91505092915050565b600060208284031215612a1d57612a1c61256a565b5b6000612a2b848285016127b7565b91505092915050565b612a3d816125f9565b8114612a4857600080fd5b50565b600081359050612a5a81612a34565b92915050565b60008060408385031215612a7757612a7661256a565b5b6000612a85858286016127b7565b9250506020612a9685828601612a4b565b9150509250929050565b600067ffffffffffffffff821115612abb57612aba612893565b5b612ac482612675565b9050602081019050919050565b6000612ae4612adf84612aa0565b6128f3565b905082815260208101848484011115612b0057612aff61288e565b5b612b0b84828561293f565b509392505050565b600082601f830112612b2857612b27612889565b5b8135612b38848260208601612ad1565b91505092915050565b60008060008060808587031215612b5b57612b5a61256a565b5b6000612b69878288016127b7565b9450506020612b7a878288016127b7565b9350506040612b8b87828801612702565b925050606085013567ffffffffffffffff811115612bac57612bab61256f565b5b612bb887828801612b13565b91505092959194509250565b600081519050919050565b600082825260208201905092915050565b6000819050602082019050919050565b612bf9816126e1565b82525050565b6000612c0b8383612bf0565b60208301905092915050565b6000602082019050919050565b6000612c2f82612bc4565b612c398185612bcf565b9350612c4483612be0565b8060005b83811015612c75578151612c5c8882612bff565b9750612c6783612c17565b925050600181019050612c48565b5085935050505092915050565b60006020820190508181036000830152612c9c8184612c24565b905092915050565b60008060408385031215612cbb57612cba61256a565b5b6000612cc9858286016127b7565b9250506020612cda858286016127b7565b9150509250929050565b7f4e487b7100000000000000000000000000000000000000000000000000000000600052602260045260246000fd5b60006002820490506001821680612d2b57607f821691505b602082108103612d3e57612d3d612ce4565b5b50919050565b7f4552433732313a20617070726f76616c20746f2063757272656e74206f776e6560008201527f7200000000000000000000000000000000000000000000000000000000000000602082015250565b6000612da060218361263a565b9150612dab82612d44565b604082019050919050565b60006020820190508181036000830152612dcf81612d93565b9050919050565b7f4552433732313a20617070726f76652063616c6c6572206973206e6f7420746f60008201527f6b656e206f776e6572206f7220617070726f76656420666f7220616c6c000000602082015250565b6000612e32603d8361263a565b9150612e3d82612dd6565b604082019050919050565b60006020820190508181036000830152612e6181612e25565b9050919050565b600081905092915050565b50565b6000612e83600083612e68565b9150612e8e82612e73565b600082019050919050565b6000612ea482612e76565b9150819050919050565b7f4552433732313a2063616c6c6572206973206e6f7420746f6b656e206f776e6560008201527f72206f7220617070726f76656400000000000000000000000000000000000000602082015250565b6000612f0a602d8361263a565b9150612f1582612eae565b604082019050919050565b60006020820190508181036000830152612f3981612efd565b9050919050565b7f455243373231456e756d657261626c653a206f776e657220696e646578206f7560008201527f74206f6620626f756e6473000000000000000000000000000000000000000000602082015250565b6000612f9c602b8361263a565b9150612fa782612f40565b604082019050919050565b60006020820190508181036000830152612fcb81612f8f565b9050919050565b60008190508160005260206000209050919050565b60006020601f8301049050919050565b600082821b905092915050565b6000600883026130347fffffffffffffffffffffffffffffffffffffffffffffffffffffffffffffffff82612ff7565b61303e8683612ff7565b95508019841693508086168417925050509392505050565b6000819050919050565b600061307b613076613071846126e1565b613056565b6126e1565b9050919050565b6000819050919050565b61309583613060565b6130a96130a182613082565b848454613004565b825550505050565b600090565b6130be6130b1565b6130c981848461308c565b505050565b5b818110156130ed576130e26000826130b6565b6001810190506130cf565b5050565b601f8211156131325761310381612fd2565b61310c84612fe7565b8101602085101561311b578190505b61312f61312785612fe7565b8301826130ce565b50505b505050565b600082821c905092915050565b600061315560001984600802613137565b1980831691505092915050565b600061316e8383613144565b9150826002028217905092915050565b6131878261262f565b67ffffffffffffffff8111156131a05761319f612893565b5b6131aa8254612d13565b6131b58282856130f1565b600060209050601f8311600181146131e857600084156131d6578287015190505b6131e08582613162565b865550613248565b601f1984166131f686612fd2565b60005b8281101561321e578489015182556001820191506020850194506020810190506131f9565b8683101561323b5784890151613237601f891682613144565b8355505b6001600288020188555050505b505050505050565b7f596f75206c696d69746564000000000000000000000000000000000000000000600082015250565b6000613286600b8361263a565b915061329182613250565b602082019050919050565b600060208201905081810360008301526132b581613279565b9050919050565b7f596f752073686f756c64206164642076616c696420616d6f756e740000000000600082015250565b60006132f2601b8361263a565b91506132fd826132bc565b602082019050919050565b60006020820190508181036000830152613321816132e5565b9050919050565b7f455243373231456e756d657261626c653a20676c6f62616c20696e646578206f60008201527f7574206f6620626f756e64730000000000000000000000000000000000000000602082015250565b6000613384602c8361263a565b915061338f82613328565b604082019050919050565b600060208201905081810360008301526133b381613377565b9050919050565b7f4e487b7100000000000000000000000000000000000000000000000000000000600052603260045260246000fd5b7f4552433732313a20696e76616c696420746f6b656e2049440000000000000000600082015250565b600061341f60188361263a565b915061342a826133e9565b602082019050919050565b6000602082019050818103600083015261344e81613412565b9050919050565b7f4552433732313a2061646472657373207a65726f206973206e6f74206120766160008201527f6c6964206f776e65720000000000000000000000000000000000000000000000602082015250565b60006134b160298361263a565b91506134bc82613455565b604082019050919050565b600060208201905081810360008301526134e0816134a4565b9050919050565b600081905092915050565b600081546134ff81612d13565b61350981866134e7565b9450600182166000811461352457600181146135395761356c565b60ff198316865281151582028601935061356c565b61354285612fd2565b60005b8381101561356457815481890152600182019150602081019050613545565b838801955050505b50505092915050565b60006135808261262f565b61358a81856134e7565b935061359a81856020860161264b565b80840191505092915050565b7f2e6a736f6e000000000000000000000000000000000000000000000000000000600082015250565b60006135dc6005836134e7565b91506135e7826135a6565b600582019050919050565b60006135fe82856134f2565b915061360a8284613575565b9150613615826135cf565b91508190509392505050565b7f4f776e61626c653a206e6577206f776e657220697320746865207a65726f206160008201527f6464726573730000000000000000000000000000000000000000000000000000602082015250565b600061367d60268361263a565b915061368882613621565b604082019050919050565b600060208201905081810360008301526136ac81613670565b9050919050565b7f4f776e61626c653a2063616c6c6572206973206e6f7420746865206f776e6572600082015250565b60006136e960208361263a565b91506136f4826136b3565b602082019050919050565b60006020820190508181036000830152613718816136dc565b9050919050565b7f4552433732313a207472616e736665722066726f6d20696e636f72726563742060008201527f6f776e6572000000000000000000000000000000000000000000000000000000602082015250565b600061377b60258361263a565b91506137868261371f565b604082019050919050565b600060208201905081810360008301526137aa8161376e565b9050919050565b7f4552433732313a207472616e7366657220746f20746865207a65726f2061646460008201527f7265737300000000000000000000000000000000000000000000000000000000602082015250565b600061380d60248361263a565b9150613818826137b1565b604082019050919050565b6000602082019050818103600083015261383c81613800565b9050919050565b7f4552433732313a20617070726f766520746f2063616c6c657200000000000000600082015250565b600061387960198361263a565b915061388482613843565b602082019050919050565b600060208201905081810360008301526138a88161386c565b9050919050565b7f4552433732313a207472616e7366657220746f206e6f6e20455243373231526560008201527f63656976657220696d706c656d656e7465720000000000000000000000000000602082015250565b600061390b60328361263a565b9150613916826138af565b604082019050919050565b6000602082019050818103600083015261393a816138fe565b9050919050565b7f4e487b7100000000000000000000000000000000000000000000000000000000600052601260045260246000fd5b7f455243373231456e756d657261626c653a20636f6e736563757469766520747260008201527f616e7366657273206e6f7420737570706f727465640000000000000000000000602082015250565b60006139cc60358361263a565b91506139d782613970565b604082019050919050565b600060208201905081810360008301526139fb816139bf565b9050919050565b600081519050919050565b600082825260208201905092915050565b6000613a2982613a02565b613a338185613a0d565b9350613a4381856020860161264b565b613a4c81612675565b840191505092915050565b6000608082019050613a6c6000830187612776565b613a796020830186612776565b613a86604083018561280c565b8181036060830152613a988184613a1e565b905095945050505050565b600081519050613ab2816125a0565b92915050565b600060208284031215613ace57613acd61256a565b5b6000613adc84828501613aa3565b91505092915050565b7f4e487b7100000000000000000000000000000000000000000000000000000000600052601160045260246000fd5b6000613b1f826126e1565b9150613b2a836126e1565b9250828203905081811115613b4257613b41613ae5565b5b92915050565b7f4e487b7100000000000000000000000000000000000000000000000000000000600052603160045260246000fd5b7f4552433732313a206d696e7420746f20746865207a65726f2061646472657373600082015250565b6000613bad60208361263a565b9150613bb882613b77565b602082019050919050565b60006020820190508181036000830152613bdc81613ba0565b9050919050565b7f4552433732313a20746f6b656e20616c7265616479206d696e74656400000000600082015250565b6000613c19601c8361263a565b9150613c2482613be3565b602082019050919050565b60006020820190508181036000830152613c4881613c0c565b905091905056fea2646970667358221220ceb9d1b5658f133a6e36d702d1cd8f5b78c2fdbbef163e46174bf948dae79d3264736f6c63430008120033697066733a2f2f516d57744242766142746750424d50614d3670486178417363366475445678714c6539744279417355677a4546552f",
  "linkReferences": {},
  "deployedLinkReferences": {}
}